:020000040800F2
:1000000000280020191700083D16000843160008B4
:10001000491600084F160008551600080000000099
:100020000000000000000000000000005B16000857
:100030006716000800000000731600087F1600080D
:1000400061170008611700086117000861170008B0
:1000500061170008611700086117000861170008A0
:100060006117000861170008611700086117000890
:100070006117000861170008611700086117000880
:100080006117000861170008611700086117000870
:100090006117000861170008611700086117000860
:1000A0006117000861170008611700086117000850
:1000B0008D16000861170008000000006117000895
:1000C0006117000800000000000000006117000830
:1000D0000000000061170008611700080000000020
:1000E0006117000861170008611700080000000090
:1000F0000000000000000000000000000000000000
:0C01000000000000000000005FF808F1A3
:10010C0010B5054C237833B9044B13B10448AFF345
:10011C0000800123237010BD780000200000000037
:10012C00442F000808B5034B1BB103490348AFF338
:10013C00008008BD000000007C000020442F000857
:10014C007BB972B90029BEBF00204FF0004106E018
:10015C0008BF00281CBF6FF000414FF0FF3000F0CB
:10016C00A1B9ADF1080C6DE904CE002909DB002B17
:10017C001ADB00F035F8DDF804E0DDE9022304B009
:10018C007047404261EB4101002B1BDB00F028F86B
:10019C00DDF804E0DDE9022304B0404261EB4101EB
:1001AC00524263EB43037047524263EB430300F04C
:1001BC0017F8DDF804E0DDE9022304B0404261EBFE
:1001CC0041017047524263EB430300F009F8DDF83C
:1001DC0004E0DDE9022304B0524263EB43037047B1
:1001EC002DE9F047089E0D4604468E46002B40F044
:1001FC0083808A42174647D9B2FA82F34BB1C3F1D6
:10020C00200105FA03FE20FA01F19F4041EA0E0E8F
:10021C009C404FEA1748BEFBF8FC1FFA87F908FB15
:10022C001CE20CFB09F0210C41EA024290420AD973
:10023C00BA180CF1FF3180F01881904240F2158110
:10024C00ACF1020C3A44121AB2FBF8F008FB102283
:10025C0000FB09F1A4B244EA0244A14209D93C19B9
:10026C0000F1FF3280F00381A14240F2008102389C
:10027C003C44641A002140EA0C401EB10022DC40D0
:10028C00C6E90042BDE8F08702B9FFDEB2FA82F39C
:10029C00002B4FD18D1A01214FEA124E1FFA82F812
:1002AC00B5FBFEFC0EFB1C5508FB0CF0220C42EAC5
:1002BC000545A84207D97D190CF1FF3202D2A8429C
:1002CC0000F2E98094462D1AB5FBFEF00EFB10559A
:1002DC0008FB00F8A4B244EA0544A04507D93C1930
:1002EC0000F1FF3202D2A04500F2D9801046A4EBF7
:1002FC00080440EA0C40C0E78B4208D9002E00F0FD
:10030C00B1800021C6E900050846BDE8F087B3FAC4
:10031C0083F100294BD1AB4202D3824200F2B98067
:10032C00841A65EB030301209E46002EAAD0C6E971
:10033C00004EA7E79F40C3F12002D1404FEA174E71
:10034C00B1FBFEF01FFA87F80EFB101124FA02F233
:10035C009D4000FB08FC2A43150C45EA0145AC45C1
:10036C0004FA03F409D97D1900F1FF3180F08F8074
:10037C00AC4540F28C8002383D44A5EB0C05B5FB36
:10038C00FEF10EFB115C01FB08F995B245EA0C4538
:10039C00A94507D97D1901F1FF3274D2A94572D94B
:1003AC0002393D44A5EB090541EA004178E7C1F16A
:1003BC0020078B4022FA07FC4CEA030C25FA07F4C1
:1003CC004FEA1C4EB4FBFEF91FFA8CF80EFB1944D5
:1003DC0020FA07F309FB08FA8D401D432B0C43EA66
:1003EC000444A24502FA01F200FA01F309D91CEB0C
:1003FC00040409F1FF3048D2A24546D9A9F10209FB
:10040C006444A4EB0A04B4FBFEF00EFB104400FBA6
:10041C0008FAADB245EA0444A24508D91CEB040421
:10042C0000F1FF352DD2A2452BD90238644440EAA5
:10043C000940A0FB0289A4EB0A044C45C6464D4674
:10044C0019D316D05EB1B3EB0E0264EB050404FABB
:10045C0007F722FA01F31F43CC40C6E900740021D0
:10046C00BDE8F087314630460CE78C46EBE610468B
:10047C00FFE64345E6D2B8EB020E69EB0C050138FA
:10048C00E0E72846D3E711468CE78146B9E70846F2
:10049C0073E7084649E7ACF1020C3D4413E7023818
:1004AC003C4424E7704700BF80B586B000AFF860CD
:1004BC00C7E9002300237B61202002F061FC034686
:1004CC007B617B69002B01D17B6914E07B69FA6845
:1004DC001A607969D7E90023C1E902237B693A6A7A
:1004EC001A617B697A6A5A617B69BA6A9A617B691B
:1004FC00FA6ADA617B6918461837BD4680BD80B54B
:10050C0082B000AF00237B600C2002F039FC034664
:10051C007B607B68002B01D17B6809E07B68002243
:10052C001A607B6800225A607B6800221A727B6812
:10053C0018460837BD4680BD80B586B000AF7860E0
:10054C007B68002B29D07B681B687B617B685B68B0
:10055C003B617B69002B07D07B699B69FB607869E9
:10056C0002F016FCFB687B613B69002B07D03B69F2
:10057C00DB69BB60386902F00BFCBB683B617A69D4
:10058C003B699A42E5D17B69002B02D0786902F075
:10059C00FFFB7B6800221A7200E000BF1837BD46D3
:1005AC0080BD80B582B000AF102002F0E9FB03469D
:1005BC007B607B68002B01D100230EE07B6800225E
:1005CC001A7379684FF0FF326FF00043C1E90023D2
:1005DC007B684FF0FF329A607B6818460837BD463F
:1005EC0080BD000080B500AF154B1B68002B05D1FA
:1005FC00FFF7D7FF0346124A136010E0104B1B683D
:10060C0000221A730E4B19684FF0FF326FF0004343
:10061C00C1E900230A4B1B684FF0FF329A60094B6B
:10062C001B68002B05D1FFF76AFF0346054A1360D0
:10063C0004E0044B1B681846FFF77EFF80BD00BF2B
:10064C00980000209400002090B400AF094B1B6868
:10065C00002B0AD0074B1C68D4E9002312F1FF30A1
:10066C0043F1FF31C4E9000100E000BFBD4690BC7E
:10067C00704700BF9800002080B485B000AF786050
:10068C00194B1B685B68FB60FB68002B26D00023B2
:10069C00FB721EE0154B1B68D3E90023F968D1E906
:1006AC000201904271EB03030DDA104B1968FB68E1
:1006BC00D3E90223C1E90023FB68D3E902230B49E8
:1006CC00096813468B60FB68DB69FB60FB7A0133BE
:1006DC00FB72FB7A7A689A42DCDC00E000BF1437CC
:1006EC00BD4680BC704700BF9400002098000020DD
:1006FC002DE9B00F87B000AFC7E902017A601B4B40
:10070C001B681B687B617B69002B29D00023FB7461
:10071C0019E07B69D3E90223796888464FF0000918
:10072C00D7E90201B8EB000469EB0105B2EB040A4E
:10073C0063EB050B7B69C3E902AB7B699B697B614E
:10074C00FB7C0133FB740A4B1B681B7BFA7C9A42C3
:10075C00DFD3064B1A68064B1B68127A1A7300E03B
:10076C0000BF1C37BD46BDE8B00F70479400002099
:10077C009800002080B582B000AF78607B68DB69A0
:10078C00002B04D07B68DB697A6892699A617B687C
:10079C009B69002B04D07B689B697A68D269DA610B
:1007AC00064B1B681A7A013AD2B21A72786802F0B8
:1007BC00EFFA00BF0837BD4680BD00BF9400002093
:1007CC002DE9B04F84B000AF754B1B68002B00F0C7
:1007DC00E180734B1B681B7A002B00F0DB80704BA5
:1007EC001B681B7A012B11D16D4B1B681B681B6896
:1007FC0098476B4B1B681B681B69694A1268116828
:10080C001A464FF00003C1E90223C4E0644B1B6895
:10081C001B68FB60624B1B685B68BB60604B1B68B2
:10082C001B7A5B08BB715E4B1B681B7A03F00103E0
:10083C007B710023FB716CE0FB68002B31D0FB68F3
:10084C00D3E90201574B1B689B681A464FF0000313
:10085C00B0EB020861EB0309FB68C3E90289FB6892
:10086C00D3E90223012A73F100030ADAFB681B683F
:10087C009847FB681B691A464FF00003F968C1E9F9
:10088C000223FB681B69002B08D1FB689B69FB608A
:10089C00FB68DB691846FFF76DFF02E0FB689B699C
:1008AC00FB60BB68002B31D0BB68D3E902013D4B28
:1008BC001B689B681A464FF00003B0EB020A61EB11
:1008CC00030BBB68C3E902ABBB68D3E90223012A63
:1008DC0073F100030ADABB681B689847BB681B6995
:1008EC001A464FF00003B968C1E90223BB681B69C3
:1008FC00002B08D1BB68DB69BB60BB689B691846E1
:10090C00FFF738FF02E0BB68DB69BB60FB790133A2
:10091C00FB71FA79BB799A428ED37B79002B2FD05D
:10092C00FB68002B2CD0FB68D3E902011D4B1B6824
:10093C009B681A464FF00003841A61EB0305FB68B1
:10094C00C3E90245FB68D3E90223012A73F10003D2
:10095C000ADAFB681B689847FB681B691A464FF05C
:10096C000003F968C1E90223FB681B69002B07D15E
:10097C00FB689B69FB60FB68DB691846FFF7FAFEB6
:10098C00074B1B681B68D3E9022306490968134609
:10099C008B6000E000BF1037BD46BDE8B08F00BFD4
:1009AC00940000209800002080B485B000AF4E4B1E
:1009BC001B68002B00F093804B4B1B681B7A002BA1
:1009CC0000F08D80484B1B681B7A012B11D1464BD4
:1009DC001B681A68454B1B6812699A60434B1B686D
:1009EC009B68424A11681A464FF00003C1E9002384
:1009FC0076E03D4B1B681B68FB603B4B1B685B68E0
:100A0C00BB60394B1B681B7A5B08BB71364B1B6890
:100A1C001B7A03F001037B710023FB7136E0FB684A
:100A2C00002B16D0FB68D3E90201304B1B689B6886
:100A3C001A464FF00003904271EB030306DAFB6891
:100A4C00D3E902232949096813468B60FB689B692B
:100A5C00FB60BB68002B16D0BB68D3E90201234BAB
:100A6C001B689B681A464FF00003904271EB03031E
:100A7C0006DABB68D3E902231C49096813468B606C
:100A8C00BB68DB69BB60FB790133FB71FA79BB791D
:100A9C009A42C4D37B79002B16D0FB68002B13D061
:100AAC00FB68D3E90201114B1B689B681A464FF097
:100ABC000003904271EB030306DAFB68D3E90223CF
:100ACC000A49096813468B60084B1B689B68074AE8
:100ADC0011681A464FF00003C1E9002300E000BF83
:100AEC001437BD4680BC704794000020980000204D
:100AFC0080B584B000AF244B1B68002B40D0234B37
:100B0C001B68D3E90023C7E90223204B1B689B68B1
:100B1C007B601D4B1B681B7A1A461C4B1B681B7B8E
:100B2C00D31A3B603B68002B02DD3868FFF7A4FD4D
:100B3C00164B1B68D3E90023D7E90201994208BF81
:100B4C00904207D03B68002B04DD7A68D7E902019C
:100B5C00FFF7CEFD3B68002B05DA0B4B1A680B4BED
:100B6C001B68127A1A73094B1B68D3E90023012AFC
:100B7C0073F1000305DAFFF723FEFFF715FF00E022
:100B8C0000BF1037BD4680BD9400002098000020A7
:100B9C002DE9904389B004AFF860C7E900233C4BC2
:100BAC001B68002B01D100236CE0394B1B681B7AAE
:100BBC00002B2ED1D7E900014FF00A024FF00003B1
:100BCC00FFF7BEFA02460B4610461946BB6A314A7D
:100BDC00A2FB0323DB082E4A146800220392002296
:100BEC00029200220192009302460B46F868FFF72E
:100BFC005BFC03462360264B1A68254B1B68126866
:100C0C005A60234B1B681A7A0132D2B21A72002333
:100C1C0038E0D7E900014FF00A024FF00003FFF76C
:100C2C008FFA02460B4690469946BB6A194AA2FBBC
:100C3C000323DB08164A12685268526901321449C0
:100C4C0009684968124800684468039100210291C0
:100C5C000192009342464B46F868FFF725FC034689
:100C6C00A3610B4B1B685A68094B1B6892695A604D
:100C7C00074B1B681A7A0132D2B21A72044B1B68EA
:100C8C005B685B6918461437BD46BDE8908300BFAE
:100C9C0094000020CDCCCCCC80B584B000AF002328
:100CAC00FB6014E0514AFB6813441978504AFB6806
:100CBC0013440A461A704F4AFB68134419784B4A7E
:100CCC00FB6813440A461A70FB680133FB60FB682F
:100CDC00022BE7DD4FF40061474801F027F803468B
:100CEC001A46444B1A704FF48051434801F01EF8D9
:100CFC0003461A463F4B5A704FF400513E4801F0E0
:100D0C0015F803461A463B4B9A700023BB6064E00F
:100D1C003A4ABB6813441B78FB71344ABB681344D2
:100D2C001A783449BB680B441B789A420ED12F4A6F
:100D3C00BB6813441A782E49BB680B441B789A4243
:100D4C0004D12B4ABB6813441B78FB712B4ABB683C
:100D5C0013441B78FA799A4205D0284ABB6813448D
:100D6C00FA791A700EE0254ABB6813441B78002BE5
:100D7C0008D1234ABB6852F823305A1E2049BB685D
:100D8C0041F823201D4ABB6813441B78002B0BD160
:100D9C001B4ABB6852F82330312B05DD194ABB685E
:100DAC00134401221A7015E0144ABB6813441B78D3
:100DBC00002B0FD1124ABB6852F82330002B09DCF0
:100DCC00104ABB68134401221A700D4ABB683221C9
:100DDC0042F82310BB680133BB60BB68022B97DD64
:100DEC0000BF00BF1037BD4680BD00BFD80000203B
:100DFC00C0000020D4000020000C0140C4000020E2
:100E0C00C8000020DC00002080B500AF084B1B6838
:100E1C00013B074A1360064B1B68002B06DC2021A4
:100E2C00044800F0B2FF024B64221A6000BF80BD80
:100E3C00000000200008014080B582B000AF78604F
:100E4C007B68032B01DD00237B607B68032B7FD841
:100E5C0001A252F823F000BF750E0008AF0E000877
:100E6C00E90E0008230F0008002280213B4800F007
:100E7C0074FF01224FF48071384800F06EFF01229C
:100E8C004FF40071354800F068FF01224FF4806187
:100E9C00324800F062FF324B1B68184600F062F8D3
:100EAC0057E0012280212D4800F057FF00224FF41B
:100EBC0080712A4800F051FF01224FF4007127483D
:100ECC0000F04BFF01224FF48061244800F045FFF5
:100EDC00234B5B68184600F045F83AE0012280216C
:100EEC001E4800F03AFF01224FF480711B4800F0BD
:100EFC0034FF00224FF40071184800F02EFF01223D
:100F0C004FF48061154800F028FF154B9B6818467C
:100F1C0000F028F81DE001228021104800F01DFF90
:100F2C0001224FF480710D4800F017FF01224FF49D
:100F3C0000710A4800F011FF00224FF4806107484D
:100F4C0000F00BFF064BDB68184600F00BF800E0D6
:100F5C0000BF00BF0837BD4680BD00BF000C01407C
:100F6C009C00002080B582B000AF78607B68082BB5
:100F7C0000F25A8101A252F823F000BFAD0F000815
:100F8C00F50F00083D10000885100008CD10000872
:100F9C00151100085D110008A5110008ED110008DD
:100FAC0000220121B44800F0D8FE00220221B248F0
:100FBC0000F0D3FE00220421AF4800F0CEFE002248
:100FCC000821AD4800F0C9FE00221021AA4800F00B
:100FDC00C4FE00222021A84800F0BFFE01224021BF
:100FEC00A54800F0BAFE43E101220121A24800F01D
:100FFC00B4FE00220221A04800F0AFFE0022042122
:10100C009D4800F0AAFE012208219B4800F0A5FE95
:10101C0001221021984800F0A0FE012220219648C0
:10102C0000F09BFE01224021934800F096FE1FE148
:10103C0000220121904800F090FE002202218E48EF
:10104C0000F08BFE012204218B4800F086FE00226A
:10105C000821894800F081FE00221021864800F00A
:10106C007CFE01222021844800F077FE00224021E2
:10107C00814800F072FEFBE0002201217E4800F066
:10108C006CFE002202217C4800F067FE0022042145
:10109C00794800F062FE00220821774800F05DFEDE
:1010AC0001221021744800F058FE012220217248C0
:1010BC0000F053FE002240216F4800F04EFED7E0B6
:1010CC00012201216C4800F048FE002202216A48EE
:1010DC0000F043FE00220421674800F03EFE01228E
:1010EC000821654800F039FE01221021624800F009
:1010FC0034FE00222021604800F02FFE0022402107
:10110C005D4800F02AFEB3E0002201215A4800F0AD
:10111C0024FE01220221584800F01FFE0022042167
:10112C00554800F01AFE00220821534800F015FE25
:10113C0001221021504800F010FE002220214E48C0
:10114C0000F00BFE002240214B4800F006FE8FE021
:10115C0000220121484800F000FE012202214648ED
:10116C0000F0FBFD00220421434800F0F6FD0022B4
:10117C000821414800F0F1FD002210213E4800F00A
:10118C00ECFD002220213C4800F0E7FD002240212C
:10119C00394800F0E2FD6BE000220121364800F0F6
:1011AC00DCFD00220221344800F0D7FD002204218E
:1011BC00314800F0D2FD012208212F4800F0CDFD6E
:1011CC00012210212C4800F0C8FD012220212A48C0
:1011DC0000F0C3FD01224021274800F0BEFD47E08E
:1011EC0000220121244800F0B8FD002202212248EF
:1011FC0000F0B3FD002204211F4800F0AEFD0022D8
:10120C0008211D4800F0A9FD002210211A4800F009
:10121C00A4FD00222021184800F09FFD002240214F
:10122C00154800F09AFD23E000220121124800F03D
:10123C0094FD00220221104800F08FFD00220421B1
:10124C000D4800F08AFD002208210B4800F085FDB6
:10125C0001221021084800F080FD002220210648C0
:10126C0000F07BFD00224021034800F076FD00BF1A
:10127C0000BF0837BD4680BD000C014080B584B06E
:10128C0002AF00F069FA00F03DF800F0C3F800F08E
:10129C0075F8174801F0BEF9FFF7A4F90A2300937B
:1012AC004FF000024FF000031248FFF771FC0A23C5
:1012BC0000934FF000024FF000030F48FFF768FC5B
:1012CC0078600A2300934FF000024FF000030B48A4
:1012DC00FFF75EFC38600A2300934FF000024FF0DA
:1012EC0000030748FFF754FCFFF702FCFCE700BFC4
:1012FC00E0000020150E00083D1500080915000837
:10130C00A50C000880B590B000AF07F11803282297
:10131C000021184601F044FD3B1D00221A605A6062
:10132C009A60DA601A610223BB610123BB6210234D
:10133C00FB6200237B6307F11803184600F03EFDA7
:10134C000346002B01D000F0D3F80F237B60002361
:10135C00BB600023FB6000233B6100237B613B1DD2
:10136C000021184600F0AAFF0346002B01D000F024
:10137C00BFF800BF4037BD4680BD000080B586B0C9
:10138C0000AF07F1080300221A605A609A60DA6015
:10139C003B4600221A605A601D4B4FF080421A6087
:1013AC001B4B41F63F725A60194B00229A60184B46
:1013BC000922DA60164B00221A61154B00229A6141
:1013CC00134801F0D7F80346002B01D000F090F839
:1013DC004FF48053BB6007F1080319460C4801F029
:1013EC0055FA0346002B01D000F082F800233B6035
:1013FC0000237B603B461946054801F02DFC034653
:10140C00002B01D000F074F800BF1837BD4680BD2A
:10141C00E000002080B586B000AF07F10803002281
:10142C001A605A609A60DA60294B9B69284A43F02B
:10143C0004039361264B9B6903F004037B607B6878
:10144C00234B9B69224A43F008039361204B9B6911
:10145C0003F008033B603B6801224FF6F8711D480E
:10146C0000F07BFC012240F2FF711B4800F075FC80
:10147C004FF6F873BB600123FB6000233B61022332
:10148C007B6107F108031946124800F0D5FA40F2C7
:10149C00FF73BB600123FB6000233B6102237B6174
:1014AC0007F1080319460C4800F0C6FA4FF46053D4
:1014BC00BB600023FB6000233B6107F10803194666
:1014CC00054800F0B9FA00BF1837BD4680BD00BF13
:1014DC000010024000080140000C014080B582B0B1
:1014EC0000AF7860FFF7B0F800BF0837BD4680BD8D
:1014FC0080B400AF72B600BFFEE7000080B400AF4E
:10150C00094B1B68013B084A1360074B1B68002BF7
:10151C0005DC064B01221A70034B64221A6000BFD3
:10152C00BD4680BC704700BF04000020B000002006
:10153C0080B500AF104B1968104B83FB0123DA10F8
:10154C00CB17D21A13469B0013449A001344CA1AA1
:10155C00002A07D10A4B1B685A1C09490A60184615
:10156C00FFF76AFC064B1B68032B02DD044B0022C1
:10157C001A6000BF80BD00BF040000201F85EB5126
:10158C00AC00002080B485B000AF154B9B69144AA9
:10159C0043F001039361124B9B6903F00103BB60A1
:1015AC00BB680F4BDB690E4A43F08053D3610C4B85
:1015BC00DB6903F080537B607B680A4B5B68FB60E4
:1015CC00FB6823F0E063FB60FB6843F08063FB6027
:1015DC00044AFB68536000BF1437BD4680BC70479B
:1015EC00001002400000014080B584B000AF78606C
:1015FC007B681B68B3F1804F13D10C4BDB690B4A32
:10160C0043F00103D361094BDB6903F00103FB6079
:10161C00FB68002200211C2000F0D7F91C2000F0F0
:10162C00F0F900BF1037BD4680BD00BF001002406E
:10163C0080B400AFFEE780B400AFFEE780B400AF2B
:10164C00FEE780B400AFFEE780B400AFFEE780B4E5
:10165C0000AF00BFBD4680BC704780B400AF00BF78
:10166C00BD4680BC704780B400AF00BFBD4680BC97
:10167C00704780B500AF00F0B5F800BF80BD00002A
:10168C0080B500AF024801F011F800BF80BD00BF6B
:10169C00E000002080B586B000AF7860144A154B8E
:1016AC00D31A7B617B693B61134B1B68002B02D106
:1016BC00114B124A1A60104B1A687B6813443A6932
:1016CC009A4207D201F032FB03460C221A604FF00B
:1016DC00FF3309E0084B1B68FB60074B1A687B68FB
:1016EC001344054A1360FB6818461837BD4680BD85
:1016FC000028002000040000B4000020400100205D
:10170C0080B400AF00BFBD4680BC7047FFF7F8FF48
:10171C000B480C490C4A002302E0D458C450043343
:10172C00C4188C42F9D3094A094C002301E0136018
:10173C000432A242FBD301F0FFFAFFF79FFD704782
:10174C000000002078000020902F00087800002076
:10175C003C010020FEE7000080B500AF084B1B6881
:10176C00074A43F010031360032000F023F90F2005
:10177C0000F008F8FFF706FF0023184680BD00BFF5
:10178C000020024080B582B000AF7860124B1A681E
:10179C00124B1B7819464FF47A73B3FBF1F3B2FB7F
:1017AC00F3F3184600F03BF90346002B01D001235C
:1017BC000EE07B680F2B0AD8002279684FF0FF30BF
:1017CC0000F003F9064A7B681360002300E0012354
:1017DC0018460837BD4680BD0800002010000020C8
:1017EC000C00002080B400AF054B1B781A46054B4B
:1017FC001B681344034A136000BFBD4680BC70478E
:10180C00100000202801002080B400AF024B1B68A0
:10181C001846BD4680BC70472801002080B485B0B6
:10182C0000AF78607B6803F00703FB600C4BDB6850
:10183C00BB60BA684FF6FF031340BB60FB681A022B
:10184C00BB68134343F0BF6343F40033BB60044AEB
:10185C00BB68D36000BF1437BD4680BC704700BF67
:10186C0000ED00E080B400AF044BDB681B0A03F012
:10187C0007031846BD4680BC704700BF00ED00E072
:10188C0080B483B000AF0346FB7197F90730002B8F
:10189C000BDBFB7903F01F02064997F907305B0954
:1018AC00012000FA02F241F8232000BF0C37BD469C
:1018BC0080BC704700E100E080B483B000AF034609
:1018CC003960FB7197F90730002B0ADB3B68DAB201
:1018DC000C4997F907301201D2B20B4483F800235C
:1018EC000AE03B68DAB20849FB7903F00F03043BCA
:1018FC001201D2B20B441A7600BF0C37BD4680BC25
:10190C00704700BF00E100E000ED00E080B489B05A
:10191C0000AFF860B9607A60FB6803F00703FB6105
:10192C00FB69C3F10703042B28BF0423BB61FB69CC
:10193C000433062B02D9FB69033B00E000237B61D7
:10194C004FF0FF32BB6902FA03F3DA43BB681A406B
:10195C007B699A404FF0FF317B6901FA03F3D9435D
:10196C007B680B40134318462437BD4680BC704738
:10197C0080B582B000AF78607B68013BB3F1807FAB
:10198C0001D301230FE00A4A7B68013B53600F210E
:10199C004FF0FF30FFF790FF054B00229A60044B8D
:1019AC0007221A60002318460837BD4680BD00BFC9
:1019BC0010E000E080B582B000AF78607868FFF787
:1019CC002DFF00BF0837BD4680BD80B586B000AF87
:1019DC000346B9607A60FB7300237B61FFF742FF1B
:1019EC0078617A68B9687869FFF790FF024697F9D1
:1019FC000F3011461846FFF75FFF00BF1837BD4682
:101A0C0080BD80B582B000AF0346FB7197F90730FB
:101A1C001846FFF735FF00BF0837BD4680BD80B5BF
:101A2C0082B000AF78607868FFF7A2FF03461846D3
:101A3C000837BD4680BD000080B48BB000AF786025
:101A4C00396000237B6200233B6248E101227B6A00
:101A5C0002FA03F3FB613B681B68FA691340BB6134
:101A6C00BA69FB699A4240F037813B685B68A34ACC
:101A7C0093425ED0A14A934275D8A14A934258D062
:101A8C009F4A93426FD89F4A934252D09D4A9342A9
:101A9C0069D89D4A93424CD09B4A934263D89B4A47
:101AAC00934246D0994A93425DD8122B2AD8122BD6
:101ABC0059D801A252F823F03F1B0008191B00084B
:101ACC002B1B00086D1B0008731B0008731B000800
:101ADC00731B0008731B0008731B0008731B0008A2
:101AEC00731B0008731B0008731B0008731B000892
:101AFC00731B0008731B0008731B0008211B0008D4
:101B0C00351B0008824A934213D02CE03B68DB68FB
:101B1C003B6229E03B68DB6804333B6224E03B68B2
:101B2C00DB6808333B621FE03B68DB680C333B62CD
:101B3C001AE03B689B68002B02D104233B6213E044
:101B4C003B689B68012B05D108233B627B68FA69D3
:101B5C001A6109E008233B627B68FA695A6103E069
:101B6C0000233B6200E000BFBB69FF2B01D87B6800
:101B7C0001E07B6804337B61BB69FF2B02D87B6A75
:101B8C009B0002E07B6A083B9B003B617B691A6807
:101B9C000F213B6901FA03F3DB431A40396A3B69B5
:101BAC0001FA03F31A437B691A603B685B6803F024
:101BBC008053002B00F09080564B9B69554A43F0A4
:101BCC0001039361534B9B6903F00103BB60BB683A
:101BDC00514A7B6A9B08023352F82330FB607B6AC4
:101BEC0003F003039B000F2202FA03F3DB43FA68B2
:101BFC001340FB607B68494A93420DD07B68484A8E
:101C0C00934207D07B68474A934201D1022304E0F8
:101C1C00032302E0012300E000237A6A02F00302AE
:101C2C0092009340FA681343FB603B497B6A9B0824
:101C3C000233FA6841F823203B685B6803F4801395
:101C4C00002B06D0384B9A683749BB6913438B601D
:101C5C0006E0354B9A68BB69DB43334913408B6014
:101C6C003B685B6803F40013002B06D02E4BDA683C
:101C7C002D49BB691343CB6006E02B4BDA68BB697B
:101C8C00DB4329491340CB603B685B6803F40033AA
:101C9C00002B06D0244B5A682349BB6913434B6075
:101CAC0006E0214B5A68BB69DB431F4913404B606C
:101CBC003B685B6803F48033002B06D01A4B1A6820
:101CCC001949BB6913430B6006E0174B1A68BB69D3
:101CDC00DB43154913400B607B6A01337B623B6825
:101CEC001A687B6A22FA03F3002B7FF4AFAE00BFB5
:101CFC0000BF2C37BD4680BC704700BF00003210BF
:101D0C000000311000002210000021100000121001
:101D1C0000001110001002400000014000080140BA
:101D2C00000C0140001001400004014080B485B05B
:101D3C0000AF78600B467B807B689A687B88134089
:101D4C00002B02D00123FB7301E00023FB73FB7B10
:101D5C0018461437BD4680BC704780B483B000AFC2
:101D6C0078600B467B8013467B707B78002B03D00E
:101D7C007A887B681A6103E07B881A047B681A6195
:101D8C0000BF0C37BD4680BC704780B485B000AF37
:101D9C0078600B467B807B68DB68FB607A88FB682D
:101DAC0013401A04FB68D9437B880B401A437B68A9
:101DBC001A6100BF1437BD4680BC704780B586B031
:101DCC0000AF78607B68002B01D101236CE27B684B
:101DDC001B6803F00103002B00F08780924B5B68BB
:101DEC0003F00C03042B0CD08F4B5B6803F00C033B
:101DFC00082B12D18C4B5B6803F48033B3F5803F16
:101E0C000BD1894B1B6803F40033002B6CD07B681F
:101E1C005B68002B68D1012346E27B685B68B3F5F5
:101E2C00803F06D1804B1B687F4A43F4803313609C
:101E3C002EE07B685B68002B0CD17B4B1B687A4ACD
:101E4C0023F480331360784B1B68774A23F4802388
:101E5C0013601DE07B685B68B3F5A02F0CD1724B4F
:101E6C001B68714A43F4802313606F4B1B686E4AE6
:101E7C0043F4803313600BE06B4B1B686A4A23F40A
:101E8C0080331360684B1B68674A23F4802313600C
:101E9C007B685B68002B13D0FFF7B6FC386108E059
:101EAC00FFF7B2FC02463B69D31A642B01D903231A
:101EBC00FAE15D4B1B6803F40033002BF0D014E007
:101ECC00FFF7A2FC386108E0FFF79EFC02463B6975
:101EDC00D31A642B01D90323E6E1534B1B6803F49B
:101EEC000033002BF0D100E000BF7B681B6803F0CF
:101EFC000203002B63D04C4B5B6803F00C03002BEC
:101F0C000BD0494B5B6803F00C03082B1CD1464BE0
:101F1C005B6803F48033002B16D1434B1B6803F032
:101F2C000203002B05D07B681B69012B01D0012318
:101F3C00BAE13D4B1B6823F0F8027B685B69DB0060
:101F4C00394913430B603AE07B681B69002B20D0A6
:101F5C00364B01221A60FFF757FC386108E0FFF797
:101F6C0053FC02463B69D31A022B01D903239BE194
:101F7C002D4B1B6803F00203002BF0D02A4B1B687F
:101F8C0023F0F8027B685B69DB00274913430B6085
:101F9C0015E0264B00221A60FFF736FC386108E08A
:101FAC00FFF732FC02463B69D31A022B01D90323FB
:101FBC007AE11D4B1B6803F00203002BF0D17B6808
:101FCC001B6803F00803002B3AD07B689B69002B3D
:101FDC0019D0174B01221A60FFF716FC386108E084
:101FEC00FFF712FC02463B69D31A022B01D90323DB
:101FFC005AE10D4B5B6A03F00203002BF0D0012079
:10200C0000F09AFA1CE00A4B00221A60FFF7FCFB66
:10201C0038610FE0FFF7F8FB02463B69D31A022B3D
:10202C0008D9032340E100BF0010024000004242E7
:10203C00800442429E4B5B6A03F00203002BE9D101
:10204C007B681B6803F00403002B00F0A6800023C0
:10205C00FB75974BDB6903F08053002B0DD1944B30
:10206C00DB69934A43F08053D361914BDB6903F0F6
:10207C008053BB60BB680123FB758E4B1B6803F45C
:10208C008073002B18D18B4B1B688A4A43F48073E6
:10209C001360FFF7B9FB386108E0FFF7B5FB0246A8
:1020AC003B69D31A642B01D90323FDE0814B1B68D8
:1020BC0003F48073002BF0D07B68DB68012B06D116
:1020CC007B4B1B6A7A4A43F0010313622DE07B6859
:1020DC00DB68002B0CD1764B1B6A754A23F001038D
:1020EC001362734B1B6A724A23F0040313621CE0E5
:1020FC007B68DB68052B0CD16D4B1B6A6C4A43F07B
:10210C00040313626A4B1B6A694A43F001031362AE
:10211C000BE0674B1B6A664A23F001031362644BA6
:10212C001B6A634A23F0040313627B68DB68002B91
:10213C0015D0FFF769FB38610AE0FFF765FB024633
:10214C003B69D31A41F28832934201D90323ABE0A5
:10215C00574B1B6A03F00203002BEED014E0FFF781
:10216C0053FB38610AE0FFF74FFB02463B69D31A79
:10217C0041F28832934201D9032395E04C4B1B6A00
:10218C0003F00203002BEED1FB7D012B05D1484B54
:10219C00DB69474A23F08053D3617B68DB69002BF2
:1021AC0000F08180424B5B6803F00C03082B61D07C
:1021BC007B68DB69022B46D13F4B00221A60FFF78C
:1021CC0023FB386108E0FFF71FFB02463B69D31A7B
:1021DC00022B01D9032367E0354B1B6803F0007316
:1021EC00002BF0D17B681B6AB3F5803F08D1304BD4
:1021FC005B6823F400327B689B682D4913434B606A
:10220C002B4B5B6823F474127B68196A7B685B6ADE
:10221C000B43274913434B60274B01221A60FFF7EE
:10222C00F3FA386108E0FFF7EFFA02463B69D31A7C
:10223C00022B01D9032337E01D4B1B6803F00073FD
:10224C00002BF0D02FE01C4B00221A60FFF7DCFAB9
:10225C00386108E0FFF7D8FA02463B69D31A022B23
:10226C0001D9032320E0124B1B6803F00073002BF1
:10227C00F0D118E07B68DB69012B01D1012313E05D
:10228C000B4B5B68FB60FB6803F480327B681B6A5A
:10229C009A4206D1FB6803F470127B685B6A9A421F
:1022AC0001D0012300E0002318461837BD4680BD3D
:1022BC0000100240007000406000424280B584B0C3
:1022CC0000AF786039607B68002B01D10123D0E02E
:1022DC006A4B1B6803F007033A689A4210D9674BA4
:1022EC001B6823F0070265493B6813430B60634B83
:1022FC001B6803F007033A689A4201D00123B8E047
:10230C007B681B6803F00203002B20D07B681B68E2
:10231C0003F00403002B05D0594B5B68584A43F477
:10232C00E06353607B681B6803F00803002B05D047
:10233C00534B5B68524A43F460535360504B5B6899
:10234C0023F0F0027B689B684D4913434B607B681C
:10235C001B6803F00103002B40D07B685B68012BEA
:10236C0007D1474B1B6803F40033002B15D1012315
:10237C007FE07B685B68022B07D1414B1B6803F045
:10238C000073002B09D1012373E03D4B1B6803F054
:10239C000203002B01D101236BE0394B5B6823F066
:1023AC0003027B685B68364913434B60FFF72CFADA
:1023BC00F8600AE0FFF728FA0246FB68D31A41F2EC
:1023CC008832934201D9032353E02D4B5B6803F011
:1023DC000C027B685B689B009A42EBD1274B1B6815
:1023EC0003F007033A689A4210D2244B1B6823F07F
:1023FC00070222493B6813430B60204B1B6803F018
:10240C0007033A689A4201D0012332E07B681B68CB
:10241C0003F00403002B08D0194B5B6823F4E06233
:10242C007B68DB68164913434B607B681B6803F0C1
:10243C000803002B09D0124B5B6823F460527B68B5
:10244C001B69DB000E4913434B6000F021F8024678
:10245C000B4B5B681B0903F00F030A49CB5C22FA98
:10246C0003F3094A1360094B1B681846FFF78AF9F6
:10247C00002318461037BD4680BD00BF0020024027
:10248C00001002405C2F0008080000200C00002007
:10249C0080B487B000AF0023FB600023BB60002337
:1024AC007B6100237B6000233B611E4B5B68FB6000
:1024BC00FB6803F00C03042B02D0082B03D027E09D
:1024CC00194B3B6127E0FB689B0C03F00F03174A89
:1024DC00D35C7B60FB6803F48033002B10D0114B72
:1024EC005B685B0C03F00103114AD35CBB607B6837
:1024FC000D4A02FB03F2BB68B2FBF3F37B6104E011
:10250C007B680C4A02FB03F37B617B693B6102E055
:10251C00054B3B6100BF3B6918461C37BD4680BC70
:10252C00704700BF0010024000127A006C2F0008A8
:10253C007C2F000800093D0080B485B000AF7860A6
:10254C000A4B1B680A4AA2FB03235B0A7A6802FB4C
:10255C0003F3FB6000BFFB685A1EFA60002BF9D135
:10256C0000BF00BF1437BD4680BC70470800002078
:10257C00D34D621080B582B000AF78607B68002BC1
:10258C0001D1012341E07B6893F83D30DBB2002B95
:10259C0006D17B68002283F83C207868FFF724F88A
:1025AC007B68022283F83D207B681A687B680433C1
:1025BC001946104600F056FA7B68012283F8462033
:1025CC007B68012283F83E207B68012283F83F2040
:1025DC007B68012283F840207B68012283F841202C
:1025EC007B68012283F842207B68012283F8432018
:1025FC007B68012283F844207B68012283F8452004
:10260C007B68012283F83D20002318460837BD461D
:10261C0080BD000080B485B000AF78607B6893F813
:10262C003D30DBB2012B01D0012335E07B68022267
:10263C0083F83D207B681B68DA687B681B6842F076
:10264C000102DA607B681B68164A934209D07B68EA
:10265C001B68B3F1804F04D07B681B68124A93420D
:10266C0011D17B681B689B6803F00703FB60FB6858
:10267C00062B10D07B681B681A687B681B6842F0BD
:10268C0001021A6007E07B681B681A687B681B688C
:10269C0042F001021A60002318461437BD4680BC74
:1026AC00704700BF002C01400004004080B584B08E
:1026BC0000AF78607B681B68DB68FB607B681B681D
:1026CC001B69BB60BB6803F00203002B20D0FB68C6
:1026DC0003F00203002B1BD07B681B686FF0020217
:1026EC001A617B6801221A777B681B689B6903F06F
:1026FC000303002B03D0786800F098F905E07868A4
:10270C0000F08BF9786800F09AF97B6800221A7750
:10271C00BB6803F00403002B20D0FB6803F0040318
:10272C00002B1BD07B681B686FF004021A617B685E
:10273C0002221A777B681B689B6903F44073002B99
:10274C0003D0786800F072F905E0786800F065F95C
:10275C00786800F074F97B6800221A77BB6803F084
:10276C000803002B20D0FB6803F00803002B1BD0C0
:10277C007B681B686FF008021A617B6804221A7769
:10278C007B681B68DB6903F00303002B03D07868BC
:10279C0000F04CF905E0786800F03FF9786800F03B
:1027AC004EF97B6800221A77BB6803F01003002BEC
:1027BC0020D0FB6803F01003002B1BD07B681B6838
:1027CC006FF010021A617B6808221A777B681B680D
:1027DC00DB6903F44073002B03D0786800F026F912
:1027EC0005E0786800F019F9786800F028F97B6842
:1027FC0000221A77BB6803F00103002B0CD0FB6896
:10280C0003F00103002B07D07B681B686FF00102FB
:10281C001A617868FEF762FEBB6803F08003002B38
:10282C000CD0FB6803F08003002B07D07B681B687F
:10283C006FF080021A61786800F06FFABB6803F0E1
:10284C004003002B0CD0FB6803F04003002B07D097
:10285C007B681B686FF040021A61786800F0F8F82A
:10286C00BB6803F02003002B0CD0FB6803F02003A3
:10287C00002B07D07B681B686FF020021A61786808
:10288C0000F042FA00BF1037BD4680BD80B584B061
:10289C0000AF786039600023FB737B6893F83C30A1
:1028AC00012B01D10223B4E07B68012283F83C2088
:1028BC007B68022283F83D207B681B689B68BB60A9
:1028CC00BB6823F07703BB60BB6823F47F43BB601A
:1028DC007B681B68BA689A603B681B68B3F5005F3D
:1028EC003ED0B3F5005F00F28780B3F5805F00F057
:1028FC008680B3F5805F7FD8702B1AD0702B7BD875
:10290C00602B50D0602B77D8502B3CD0502B73D8E9
:10291C00402B58D0402B6FD8302B64D0302B6BD839
:10292C00202B60D0202B67D8002B5CD0102B5AD0DA
:10293C0062E07B6818683B6899683B685A683B683A
:10294C00DB6800F06AF97B681B689B68BB60BB683E
:10295C0043F07703BB607B681B68BA689A604FE0F2
:10296C007B6818683B6899683B685A683B68DB6809
:10297C0000F053F97B681B689A687B681B6842F40B
:10298C0080429A603CE07B6818683B6859683B68F9
:10299C00DB681A4600F0CAF87B681B6850211846A1
:1029AC0000F021F92CE07B6818683B6859683B689B
:1029BC00DB681A4600F0E8F87B681B686021184653
:1029CC0000F011F91CE07B6818683B6859683B689B
:1029DC00DB681A4600F0AAF87B681B684021184691
:1029EC0000F001F90CE07B681A683B681B6819461B
:1029FC00104600F0F8F803E00123FB7300E000BF81
:102A0C007B68012283F83D207B68002283F83C2000
:102A1C00FB7B18461037BD4680BD80B483B000AF39
:102A2C00786000BF0C37BD4680BC704780B483B063
:102A3C0000AF786000BF0C37BD4680BC704780B4D7
:102A4C0083B000AF786000BF0C37BD4680BC7047C8
:102A5C0080B483B000AF786000BF0C37BD4680BC3B
:102A6C007047000080B485B000AF786039607B6837
:102A7C001B68FB607B682B4A934207D07B68B3F1E1
:102A8C00804F03D07B68284A934208D1FB6823F01F
:102A9C007003FB603B685B68FA681343FB607B6800
:102AAC00204A934207D07B68B3F1804F03D07B68F8
:102ABC001D4A934208D1FB6823F44073FB603B68CA
:102ACC00DB68FA681343FB60FB6823F080023B6809
:102ADC005B691343FB607B68FA681A603B689A6811
:102AEC007B68DA623B681A687B689A627B680D4A7D
:102AFC00934203D13B681A697B681A637B68012295
:102B0C005A617B681B6903F00103002B05D07B68BD
:102B1C001B6923F001027B681A6100BF1437BD46A4
:102B2C0080BC7047002C01400004004080B487B08A
:102B3C0000AFF860B9607A60FB681B6A7B61FB6868
:102B4C001B6A23F00102FB681A62FB689B693B61FC
:102B5C003B6923F0F0033B617B681B013A6913432B
:102B6C003B617B6923F00A037B617A69BB68134381
:102B7C007B61FB683A699A61FB687A691A6200BFEB
:102B8C001C37BD4680BC704780B487B000AFF8607E
:102B9C00B9607A60FB681B6A7B61FB681B6A23F077
:102BAC001002FB681A62FB689B693B613B6923F46A
:102BBC0070433B617B681B033A6913433B617B6940
:102BCC0023F0A0037B61BB681B017A6913437B6113
:102BDC00FB683A699A61FB687A691A6200BF1C3714
:102BEC00BD4680BC704780B485B000AF786039605A
:102BFC007B689B68FB60FB6823F07003FB603A68A2
:102C0C00FB68134343F00703FB607B68FA689A6028
:102C1C0000BF1437BD4680BC704780B487B000AF8E
:102C2C00F860B9607A603B60FB689B687B617B698C
:102C3C0023F47F437B613B681A027B681A43BB68B1
:102C4C0013437A6913437B61FB687A699A6000BF0E
:102C5C001C37BD4680BC704780B485B000AF78602F
:102C6C0039607B6893F83C30012B01D1022341E0A1
:102C7C007B68012283F83C207B68022283F83D208C
:102C8C007B681B685B68FB607B681B689B68BB6030
:102C9C00FB6823F07003FB603B681B68FA68134306
:102CAC00FB607B681B68FA685A607B681B68144A77
:102CBC00934209D07B681B68B3F1804F04D07B68CA
:102CCC001B68104A93420CD1BB6823F08003BB6095
:102CDC003B685B68BA681343BB607B681B68BA6867
:102CEC009A607B68012283F83D207B68002283F880
:102CFC003C20002318461437BD4680BC704700BFEB
:102D0C00002C01400004004080B483B000AF786018
:102D1C0000BF0C37BD4680BC704780B483B000AF99
:102D2C00786000BF0C37BD4680BC7047014B1868FB
:102D3C00704700BF1400002070B500260C4D0D4CE0
:102D4C00641BA410A64209D100F0F6F800260A4D27
:102D5C000A4C641BA410A64205D170BD55F8043B67
:102D6C0098470136EEE755F8043B98470136F2E7F1
:102D7C00882F0008882F0008882F00088C2F000847
:102D8C00024B0146186800F05FB800BF1400002029
:102D9C00024B0146186800F00BB800BF140000206D
:102DAC0003460244934200D1704703F8011BF9E734
:102DBC0038B50546002943D051F8043C0C1F002BB4
:102DCC00B8BFE41800F0AAF81E4A1368104633B9CD
:102DDC00636014602846BDE8384000F0A5B8A342F3
:102DEC000AD921686218934201BF1A685B685218AD
:102DFC00226063600460EDE71A465B680BB1A34286
:102E0C00FAD911685018A0420BD12068014450180F
:102E1C0083421160DED118685B6801441160536015
:102E2C00D8E702D90C232B60D4E7206821188B42F9
:102E3C0001BF19685B680918216063605460C9E7B9
:102E4C0038BD00BFB8000020F8B5CD1C25F0030537
:102E5C0008350C2D38BF0C25002D064601DBA94288
:102E6C0003D90C2333600020F8BD00F057F821493A
:102E7C000A6814469CB9204F3B6823B9214630465A
:102E8C0000F03CF838602946304600F037F8431C17
:102E9C0023D10C233046336000F046F8E3E7236877
:102EAC005B1B17D40B2B03D923601C44256004E057
:102EBC006368A2420CBF0B605360304600F034F8DC
:102ECC0004F10B00231D20F00700C21ACCD01B1AF2
:102EDC00A350C9E722466468CCE7C41C24F0030461
:102EEC00A042E3D0211A304600F008F80130DDD1C1
:102EFC00CFE700BFB8000020BC00002038B500238D
:102F0C00054D044608462B60FEF7C4FB431C02D15A
:102F1C002B6803B1236038BD2C010020014800F060
:102F2C0009B800BF34010020014800F004B800BF0C
:102F3C003401002070477047F8B500BFF8BC08BCDE
:102F4C009E467047F8B500BFF8BC08BC9E4670475B
:102F5C00000000000000000001020304060708093D
:102F6C0002030405060708090A0B0C0D0E0F1010BE
:042F7C00010200004E
:082F80006CD2FF7F010000008C
:042F8800310100080B
:042F8C000D0100082B
:102F9000640000006400000000127A0010000000CD
:102FA00001000000180000200000000000000000E8
:102FB0000000000000000000000000000000000011
:102FC0000000000000000000000000000000000001
:102FD00000000000000000000000000000000000F1
:102FE00000000000000000000000000000000000E1
:102FF00000000000000000000000000000000000D1
:083000000000000000000000C8
:0400000508001719BF
:00000001FF
