:020000040800F2
:100000000028002089130008750F00087B0F0008E6
:10001000810F0008870F00088D0F00080000000006
:10002000000000000000000000000000930F000826
:100030009F0F000800000000AB0F0008B70F00087A
:10004000D1130008D1130008D1130008D113000800
:10005000D1130008D1130008D1130008D1130008F0
:10006000D1130008D1130008D1130008D1130008E0
:10007000D1130008D1130008D1130008D1130008D0
:10008000D1130008D1130008D1130008D1130008C0
:10009000D1130008D1130008D1130008D1130008B0
:1000A000D1130008D1130008D1130008D1130008A0
:1000B000C50F0008D113000800000000D11300088C
:1000C000D11300080000000000000000D113000858
:1000D00000000000D1130008D11300080000000048
:1000E000D1130008D1130008D1130008000000004C
:1000F0000000000000000000000000000000000000
:0C01000000000000000000005FF808F1A3
:10010C0010B5054C237833B9044B13B10448AFF345
:10011C0000800123237010BD14000020000000009B
:10012C00002A000808B5034B1BB103490348AFF381
:10013C00008008BD0000000018000020002A000804
:10014C0080B483B000AF00237B6020E0144A7B684E
:10015C00012142F82310134A7B68012142F8231035
:10016C00114A7B68012142F82310104A7B68012157
:10017C0042F823100E4A7B68002142F823100D4AE6
:10018C007B68322142F823107B6801337B607B68EB
:10019C00022BDBDD00BF00BF0C37BD4680BC7047B7
:1001AC00A0000020AC0000207C0000208800002073
:1001BC00B80000209400002080B483B000AF7860B9
:1001CC007B68022B01DD002303E0044A7B6852F8B4
:1001DC00233018460C37BD4680BC7047B800002051
:1001EC0080B483B000AF78607B68022B05DC054AD5
:1001FC007B68002142F8231000E000BF0C37BD469D
:10020C0080BC7047B800002080B584B000AF0023DC
:10021C00FB6012E0504AFB6852F823204F49FB6800
:10022C0041F823204E4AFB6852F823204A49FB68C8
:10023C0041F82320FB680133FB60FB68022BE9DDEE
:10024C004FF40061474801F0A9FB03461A46444BA2
:10025C001A604FF48051434801F0A0FB03461A4644
:10026C003F4B5A604FF400513E4801F097FB034658
:10027C001A463B4B9A600023BB6064E03A4ABB6869
:10028C0052F823307B60344ABB6852F8232034493F
:10029C00BB6851F823309A420ED12F4ABB6852F8F2
:1002AC0023202E49BB6851F823309A4204D12B4AA3
:1002BC00BB6852F823307B602B4ABB6852F8233062
:1002CC007A689A4205D02849BB687A6841F823209D
:1002DC000EE0254ABB6852F82330002B08D1234A84
:1002EC00BB6852F823305A1E2049BB6841F82320C2
:1002FC001D4ABB6852F82330002B0BD11B4ABB683C
:10030C0052F82330312B05DD194ABB68012142F824
:10031C00231015E0144ABB6852F82330002B0FD180
:10032C00124ABB6852F82330002B09DC104ABB6818
:10033C00012142F823100D4ABB68322142F82310E8
:10034C00BB680133BB60BB68022B97DD00BF00BFED
:10035C001037BD4680BD00BFAC0000207C000020E3
:10036C00A0000020000C0140880000209400002018
:10037C00B800002080B500AF0E4B1A680E4B1B68FE
:10038C0013445A1C0D4B1B689A4208D0094B00228F
:10039C001A600A4B00221A60074B00221A60084BA5
:1003AC001B68002B01D000F05FFE00F051FF00BF76
:1003BC0080BD00BF60000020640000205C000020B5
:1003CC007800002080B400AF074B1B68074A13600D
:1003DC00074B1B68074A1360074B1B68074A1360DF
:1003EC0000BFBD4680BC70475C000020340000207C
:1003FC006000002038000020640000203C00002039
:10040C0080B500AF022000F0E7FD00F00BFD0346C5
:10041C00002B0BD0234B1B68002B0CBF012300239C
:10042C00DBB21A461F4B1A6000F006FD1D4B1B6811
:10043C00002B04D000F068FE00F054FE01E000F048
:10044C00BDFE0120FFF7B8FE0346002B1AD0164B59
:10045C001B680133144A1360134B1A68134B83FB4C
:10046C0002135911D317CB1A642101FB03F3D31ACE
:10047C000D4A13600C4B1B68184600F0D1FD01208F
:10048C00FFF7AEFE0220FFF797FE0346002B06D0C7
:10049C00054B1B68064A13600220FFF7A1FE00BF44
:1004AC0080BD00BF30000020340000201F85EB51C0
:1004BC005C00002080B500AF032000F08DFD00F043
:1004CC00B1FC0346002B0BD0264B1B68002B0CBF3A
:1004DC0001230023DBB21A46224B1A6000F0ACFC5D
:1004EC00204B1B68002B04D000F032FE00F01EFEE7
:1004FC0001E000F063FE0120FFF75EFE0346002BD7
:10050C001AD0194B1B680133174A1360164B1A6823
:10051C00164B83FB02135911D317CB1A642101FB21
:10052C0003F3D31A104A13600F4B1B68184600F0E4
:10053C0077FD0120FFF754FE0220FFF73DFE034636
:10054C00002B0CD0084B1A68094B1B689A4203DA33
:10055C00054B1B68074A13600220FFF741FE00BFE2
:10056C0080BD00BF30000020380000201F85EB51FB
:10057C005C0000206000002080B500AF042000F07B
:10058C002BFD00F04FFC0346002B0BD0284B1B68B7
:10059C00002B0CBF01230023DBB21A46244B1A603C
:1005AC0000F04AFC224B1B68002B04D000F0F4FD39
:1005BC0000F0E0FD01E000F001FE0120FFF7FCFD82
:1005CC000346002B1AD01B4B1B680133194A1360CE
:1005DC00184B1A68184B83FB02135911D317CB1AFB
:1005EC00642101FB03F3D31A124A1360114B1B68ED
:1005FC00184600F015FD0120FFF7F2FD0220FFF771
:10060C00DBFD0346002B10D00C4B1A680C4B1B68FF
:10061C00D21A084B1B689A4204DB064B1B68013B41
:10062C00084A13600220FFF7DBFD00BF80BD00BF4E
:10063C00300000203C0000201F85EB515C000020A6
:10064C00600000206400002080B500AF174B1B68D1
:10065C00002B04D0FFF7B6FE144B00221A6000F0FA
:10066C002DF80346032B16D0032B1CDC012B02D0D8
:10067C00022B08D017E00E4B1B68184600F0D0FC7C
:10068C00FFF7BEFE10E00B4B1B68184600F0C8FCD1
:10069C00FFF710FF08E0084B1B68184600F0C0FC81
:1006AC00FFF76AFF00E000BF00BF80BD78000020AC
:1006BC0034000020380000203C00002080B400AF43
:1006CC00024B1B681846BD4680BC7047400000209A
:1006DC0080B500AF0020FFF76FFD0346002B15D04F
:1006EC00104B01221A60104B1B6801330E4A136029
:1006FC000D4B1B685A4203F0030302F0030258BF70
:10070C005342094A13600020FFF76AFD064B1B6831
:10071C00002B02D1FFF72EFE01E0FFF795FF00BF83
:10072C0080BD00BF780000204000002080B500AFE5
:10073C00094B1B68013B084A1360074B1B68002BD5
:10074C0008DC2021054801F058F900F075FB024B3C
:10075C0064221A6000BF80BD000000200008014028
:10076C0080B483B000AF786039607B68032B05DC04
:10077C0005497B683A6841F8232000E000BF0C373C
:10078C00BD4680BC704700BF4400002080B582B0DD
:10079C0000AF78607B68032B01DD00237B607B68F6
:1007AC00032B7FD801A252F823F000BFC907000821
:1007BC00030800083D080008770800080022802183
:1007CC003B4801F002F901224FF48071384801F0E6
:1007DC00FCF801224FF40071354801F0F6F80122C3
:1007EC004FF48061324801F0F0F8324B1B68184628
:1007FC0000F062F857E0012280212D4801F0E5F865
:10080C0000224FF480712A4801F0DFF801224FF4E6
:10081C000071274801F0D9F801224FF48061244877
:10082C0001F0D3F8234B5B68184600F045F83AE02A
:10083C00012280211E4801F0C8F801224FF480717A
:10084C001B4801F0C2F800224FF40071184801F067
:10085C00BCF801224FF48061154801F0B6F8154B35
:10086C009B68184600F028F81DE0012280211048F2
:10087C0001F0ABF801224FF480710D4801F0A5F89E
:10088C0001224FF400710A4801F09FF800224FF446
:10089C008061074801F099F8064BDB68184600F0B8
:1008AC000BF800E000BF00BF0837BD4680BD00BF9D
:1008BC00000C01404400002080B582B000AF78608D
:1008CC007B68082B00F25A8101A252F823F000BF7A
:1008DC00010900084909000891090008D909000814
:1008EC00210A0008690A0008B10A0008F90A000880
:1008FC00410B000800220121B44801F066F80022E7
:10090C000221B24801F061F800220421AF4801F045
:10091C005CF800220821AD4801F057F800221021A4
:10092C00AA4801F052F800222021A84801F04DF805
:10093C0001224021A54801F048F843E101220121A0
:10094C00A24801F042F800220221A04801F03DF833
:10095C00002204219D4801F038F8012208219B480F
:10096C0001F033F801221021984801F02EF80122F1
:10097C002021964801F029F801224021934801F0EA
:10098C0024F81FE100220121904801F01EF80022FA
:10099C0002218E4801F019F8012204218B4801F044
:1009AC0014F800220821894801F00FF800221021C8
:1009BC00864801F00AF801222021844801F005F84C
:1009CC0000224021814801F000F8FBE000220121C7
:1009DC007E4800F0FAFF002202217C4800F0F5FF6F
:1009EC0000220421794800F0F0FF0022082177480A
:1009FC0000F0EBFF01221021744800F0E6FF012209
:100A0C002021724800F0E1FF002240216F4800F0E5
:100A1C00DCFFD7E0012201216C4800F0D6FF002258
:100A2C0002216A4800F0D1FF00220421674800F03F
:100A3C00CCFF01220821654800F0C7FF01221021DC
:100A4C00624800F0C2FF00222021604800F0BDFF88
:100A5C00002240215D4800F0B8FFB3E000220121E4
:100A6C005A4800F0B2FF01220221584800F0ADFFB5
:100A7C0000220421554800F0A8FF00220821534809
:100A8C0000F0A3FF01221021504800F09EFF00222D
:100A9C0020214E4800F099FF002240214B4800F0E5
:100AAC0094FF8FE000220121484800F08EFF0122C4
:100ABC000221464800F089FF00220421434800F03F
:100ACC0084FF00220821414800F07FFF0022102102
:100ADC003E4800F07AFF002220213C4800F075FFD0
:100AEC0000224021394800F070FF6BE00022012108
:100AFC00364800F06AFF00220221344800F065FFFE
:100B0C0000220421314800F060FF012208212F4807
:100B1C0000F05BFF012210212C4800F056FF01224F
:100B2C0020212A4800F051FF01224021274800F0E3
:100B3C004CFF47E000220121244800F046FF002230
:100B4C000221224800F041FF002204211F4800F03E
:100B5C003CFF002208211D4800F037FF0022102125
:100B6C001A4800F032FF00222021184800F02DFF17
:100B7C0000224021154800F028FF23E0002201212B
:100B8C00124800F022FF00220221104800F01DFF45
:100B9C00002204210D4800F018FF002208210B4808
:100BAC0000F013FF01221021084800F00EFF002274
:100BBC002021064800F009FF00224021034800F0E4
:100BCC0004FF00BF00BF0837BD4680BD000C0140CC
:100BDC0080B500AF00F0F8FB00F00EF800F094F8D0
:100BEC0000F046F8034801F04DFBFFF7A9FAFFF7B8
:100BFC006FFDFCE7C400002080B590B000AF07F19A
:100C0C00180328220021184601F0ECFE3B1D00229F
:100C1C001A605A609A60DA601A610223BB61012380
:100C2C00BB621023FB6200237B6307F11803184699
:100C3C0000F0FCFE0346002B01D000F0D3F80F238C
:100C4C007B600023BB600023FB6000233B6100231F
:100C5C007B613B1D0021184601F068F90346002B0F
:100C6C0001D000F0BFF800BF4037BD4680BD00008A
:100C7C0080B586B000AF07F1080300221A605A60F5
:100C8C009A60DA603B4600221A605A601D4B4FF0A6
:100C9C0080421A601B4B41F63F725A60194B00227E
:100CAC009A60184B0922DA60164B00221A61154B18
:100CBC0000229A61134801F095FA0346002B01D0EB
:100CCC0000F090F84FF48053BB6007F1080319460D
:100CDC000C4801F013FC0346002B01D000F082F805
:100CEC0000233B6000237B603B461946054801F01E
:100CFC00EBFD0346002B01D000F074F800BF183751
:100D0C00BD4680BDC400002080B586B000AF07F1A1
:100D1C00080300221A605A609A60DA60294B9B69BA
:100D2C00284A43F004039361264B9B6903F00403A8
:100D3C007B607B68234B9B69224A43F008039361D9
:100D4C00204B9B6903F008033B603B6801224FF684
:100D5C00F8711D4800F039FE012240F2FF711B486A
:100D6C0000F033FE4FF6F873BB600123FB600023E9
:100D7C003B6102237B6107F108031946124800F01E
:100D8C0093FC40F2FF73BB600123FB6000233B61CB
:100D9C0002237B6107F1080319460C4800F084FC20
:100DAC004FF46053BB600023FB6000233B6107F1F1
:100DBC0008031946054800F077FC00BF1837BD46FC
:100DCC0080BD00BF0010024000080140000C014033
:100DDC0080B582B000AF786000F064F800BF0837CF
:100DEC00BD4680BD80B400AF72B600BFFEE7000008
:100DFC0080B400AF094B1B68013B084A1360074BDA
:100E0C001B68002B05DC064B01221A60034B642285
:100E1C001A6000BFBD4680BC704700BF04000020B4
:100E2C005800002080B400AF024B1B681846BD462A
:100E3C0080BC70475800002080B400AF034B0022E8
:100E4C001A6000BFBD4680BC704700BF5800002030
:100E5C0080B500AF104B1968104B83FB0123DA10DF
:100E6C00CB17D21A13469B0013449A001344CA1A88
:100E7C00002A07D10A4B1B685A1C09490A601846FC
:100E8C00FFF784FC064B1B68032B02DD044B00228E
:100E9C001A6000BF80BD00BF040000201F85EB510D
:100EAC005400002080B500AFFFF740FCFFF7D0FFE7
:100EBC00FFF79EFFFFF7A8F900BF80BD80B485B097
:100ECC0000AF154B9B69144A43F001039361124B1D
:100EDC009B6903F00103BB60BB680F4BDB690E4AD7
:100EEC0043F08053D3610C4BDB6903F080537B6080
:100EFC007B680A4B5B68FB60FB6823F0E063FB607C
:100F0C00FB6843F08063FB60044AFB68536000BFDE
:100F1C001437BD4680BC70470010024000000140F1
:100F2C0080B584B000AF78607B681B68B3F1804FEC
:100F3C0013D10C4BDB690B4A43F00103D361094B12
:100F4C00DB6903F00103FB60FB68002200211C201D
:100F5C0000F073FB1C2000F08CFB00BF1037BD466B
:100F6C0080BD00BF0010024080B400AFFEE780B42B
:100F7C0000AFFEE780B400AFFEE780B400AFFEE741
:100F8C0080B400AFFEE780B400AF00BFBD4680BCAC
:100F9C00704780B400AF00BFBD4680BC704780B4C2
:100FAC0000AF00BFBD4680BC704780B500AF00F0FD
:100FBC0051FA00BF80BD000080B500AF024801F0BF
:100FCC00ADF900BF80BD00BFC400002080B400AFED
:100FDC0000BFBD4680BC704780B582B000AF786062
:100FEC007B680E4A82FB03129210DB17D31A194648
:100FFC000020FFF7B5FB7A68084B83FB02139910AE
:10100C00D317C91A0B469B000B445B00D11A022064
:10101C00FFF7A6FB00BF0837BD4680BD6766666656
:10102C0080B582B000AF78607B680E4A82FB0312F9
:10103C009210DB17D31A19460120FFF791FB7A683F
:10104C00084B83FB02139910D317C91A0B469B004C
:10105C000B445B00D11A0320FFF782FB00BF08375B
:10106C00BD4680BD6766666680B400AF074B1B68E3
:10107C00074A1360074B1B68074A1360074B1B6832
:10108C00074A136000BFBD4680BC70475C0000205F
:10109C006C00002060000020700000206400002024
:1010AC007400002080B400AF0B4B1B68013B0A4A54
:1010BC0013600A4B1B68002B05DA094B1B68013BBC
:1010CC00074A136004E0054B1B68013B034A13609D
:1010DC0000BFBD4680BC70476C000020740000202F
:1010EC007000002080B500AF00228021054800F080
:1010FC006CFC00224FF40051024800F066FC00BF6B
:10110C0080BD00BF0008014080B500AF002208215F
:10111C00054800F05AFC00224FF48061024800F0B0
:10112C0054FC00BF80BD00BF0008014080B500AF7B
:10113C0000224FF40071054800F047FC00224FF4E8
:10114C000041024800F041FC00BF80BD0008014096
:10115C0080B500AF00224021054800F036FC00228B
:10116C004FF48051024800F030FC00BF80BD00BF3E
:10117C000008014080B500AF00224FF48071054893
:10118C0000F023FC00224FF48041024800F01DFCCB
:10119C0000BF80BD0008014080B500AF00221021C7
:1011AC00054800F012FC00224FF40061024800F0E8
:1011BC000CFC00BF80BD00BF0008014080B500AF33
:1011CC0001228021214800F000FC01224FF4005143
:1011DC001E4800F0FAFB012208211C4800F0F5FB28
:1011EC0001224FF48061194800F0EFFB01224FF40B
:1011FC000071164800F0E9FB01224FF4004113483E
:10120C0000F0E3FB01224021104800F0DEFB01223C
:10121C004FF480510D4800F0D8FB01224FF480713F
:10122C000A4800F0D2FB01224FF48041074800F03D
:10123C00CCFB01221021054800F0C7FB01224FF422
:10124C000061024800F0C1FB00BF80BD00080140F6
:10125C0080B500AF434B1B68012B3ED1424B1B6842
:10126C001846FFF7B9FE414B1B68002B08D0FFF75F
:10127C00A5FFFFF749FFFFF77DFF3C4B00221A60EB
:10128C003B4B1B68002B0BDA3A4B1B681846FFF7DD
:10129C00C7FEFFF793FFFFF749FFFFF735FF04E0A9
:1012AC00334B1B681846FFF7BBFE334B1B68002BF8
:1012BC0003D0FFF7F7FEFFF7BFFD2B4B1B68002B8E
:1012CC004ADAFFF7D1FEFFF779FFFFF70BFFFFF7C5
:1012DC0063FF244B00221A603EE0234B1B68184628
:1012EC00FFF79EFE214B1B68002B08D0FFF766FF13
:1012FC00FFF7F8FEFFF750FF1C4B00221A601C4B47
:10130C001B68002B0BDA1B4B1B681846FFF764FE9F
:10131C00FFF754FFFFF71CFFFFF7E4FE04E0144B4C
:10132C001B681846FFF758FE134B1B68002B03D0A5
:10133C00FFF7B8FEFFF780FD0B4B1B68002B0DDA97
:10134C00FFF792FEFFF73AFFFFF7DEFEFFF712FF03
:10135C00044B01221A6001E000BF00E000BF00BF97
:10136C0080BD00BF680000206C00002078000020C9
:10137C00740000207000002058000020FFF726FEAB
:10138C000B480C490C4A002302E0D458C4500433D7
:10139C00C4188C42F9D3094A094C002301E01360AC
:1013AC000432A242FBD301F0F9FAFFF711FC7047AB
:1013BC000000002014000020442A00081400002023
:1013CC0010010020FEE7000080B500AF084B1B6841
:1013DC00074A43F010031360032000F023F90F2099
:1013EC0000F008F8FFF76AFD0023184680BD00BF27
:1013FC000020024080B582B000AF7860124B1A68B2
:10140C00124B1B7819464FF47A73B3FBF1F3B2FB12
:10141C00F3F3184600F03BF90346002B01D00123EF
:10142C000EE07B680F2B0AD8002279684FF0FF3052
:10143C0000F003F9064A7B681360002300E00123E7
:10144C0018460837BD4680BD08000020100000205B
:10145C000C00002080B400AF054B1B781A46054BDE
:10146C001B681344034A136000BFBD4680BC704721
:10147C00100000200C01002080B400AF024B1B6850
:10148C001846BD4680BC70470C01002080B485B066
:10149C0000AF78607B6803F00703FB600C4BDB68E4
:1014AC00BB60BA684FF6FF031340BB60FB681A02BF
:1014BC00BB68134343F0BF6343F40033BB60044A7F
:1014CC00BB68D36000BF1437BD4680BC704700BFFB
:1014DC0000ED00E080B400AF044BDB681B0A03F0A6
:1014EC0007031846BD4680BC704700BF00ED00E006
:1014FC0080B483B000AF0346FB7197F90730002B23
:10150C000BDBFB7903F01F02064997F907305B09E7
:10151C00012000FA02F241F8232000BF0C37BD462F
:10152C0080BC704700E100E080B483B000AF03469C
:10153C003960FB7197F90730002B0ADB3B68DAB294
:10154C000C4997F907301201D2B20B4483F80023EF
:10155C000AE03B68DAB20849FB7903F00F03043B5D
:10156C001201D2B20B441A7600BF0C37BD4680BCB8
:10157C00704700BF00E100E000ED00E080B489B0EE
:10158C0000AFF860B9607A60FB6803F00703FB6199
:10159C00FB69C3F10703042B28BF0423BB61FB6960
:1015AC000433062B02D9FB69033B00E000237B616B
:1015BC004FF0FF32BB6902FA03F3DA43BB681A40FF
:1015CC007B699A404FF0FF317B6901FA03F3D943F1
:1015DC007B680B40134318462437BD4680BC7047CC
:1015EC0080B582B000AF78607B68013BB3F1807F3F
:1015FC0001D301230FE00A4A7B68013B53600F21A2
:10160C004FF0FF30FFF790FF054B00229A60044B20
:10161C0007221A60002318460837BD4680BD00BF5C
:10162C0010E000E080B582B000AF78607868FFF71A
:10163C002DFF00BF0837BD4680BD80B586B000AF1A
:10164C000346B9607A60FB7300237B61FFF742FFAE
:10165C0078617A68B9687869FFF790FF024697F964
:10166C000F3011461846FFF75FFF00BF1837BD4615
:10167C0080BD80B582B000AF0346FB7197F907308F
:10168C001846FFF735FF00BF0837BD4680BD80B553
:10169C0082B000AF78607868FFF7A2FF0346184667
:1016AC000837BD4680BD000080B48BB000AF7860B9
:1016BC00396000237B6200233B6248E101227B6A94
:1016CC0002FA03F3FB613B681B68FA691340BB61C8
:1016DC00BA69FB699A4240F037813B685B68A34A60
:1016EC0093425ED0A14A934275D8A14A934258D0F6
:1016FC009F4A93426FD89F4A934252D09D4A93423D
:10170C0069D89D4A93424CD09B4A934263D89B4ADA
:10171C00934246D0994A93425DD8122B2AD8122B69
:10172C0059D801A252F823F0AF1700088917000806
:10173C009B170008DD170008E3170008E3170008E3
:10174C00E3170008E3170008E3170008E317000885
:10175C00E3170008E3170008E3170008E317000875
:10176C00E3170008E3170008E317000891170008B7
:10177C00A5170008824A934213D02CE03B68DB6823
:10178C003B6229E03B68DB6804333B6224E03B6846
:10179C00DB6808333B621FE03B68DB680C333B6261
:1017AC001AE03B689B68002B02D104233B6213E0D8
:1017BC003B689B68012B05D108233B627B68FA6967
:1017CC001A6109E008233B627B68FA695A6103E0FD
:1017DC0000233B6200E000BFBB69FF2B01D87B6894
:1017EC0001E07B6804337B61BB69FF2B02D87B6A09
:1017FC009B0002E07B6A083B9B003B617B691A689B
:10180C000F213B6901FA03F3DB431A40396A3B6948
:10181C0001FA03F31A437B691A603B685B6803F0B7
:10182C008053002B00F09080564B9B69554A43F037
:10183C0001039361534B9B6903F00103BB60BB68CD
:10184C00514A7B6A9B08023352F82330FB607B6A57
:10185C0003F003039B000F2202FA03F3DB43FA6845
:10186C001340FB607B68494A93420DD07B68484A21
:10187C00934207D07B68474A934201D1022304E08C
:10188C00032302E0012300E000237A6A02F0030242
:10189C0092009340FA681343FB603B497B6A9B08B8
:1018AC000233FA6841F823203B685B6803F4801329
:1018BC00002B06D0384B9A683749BB6913438B60B1
:1018CC0006E0354B9A68BB69DB43334913408B60A8
:1018DC003B685B6803F40013002B06D02E4BDA68D0
:1018EC002D49BB691343CB6006E02B4BDA68BB690F
:1018FC00DB4329491340CB603B685B6803F400333E
:10190C00002B06D0244B5A682349BB6913434B6008
:10191C0006E0214B5A68BB69DB431F4913404B60FF
:10192C003B685B6803F48033002B06D01A4B1A68B3
:10193C001949BB6913430B6006E0174B1A68BB6966
:10194C00DB43154913400B607B6A01337B623B68B8
:10195C001A687B6A22FA03F3002B7FF4AFAE00BF48
:10196C0000BF2C37BD4680BC704700BF0000321052
:10197C000000311000002210000021100000121095
:10198C00000011100010024000000140000801404E
:10199C00000C0140001001400004014080B485B0EF
:1019AC0000AF78600B467B807B689A687B8813401D
:1019BC00002B02D00123FB7301E00023FB73FB7BA4
:1019CC0018461437BD4680BC704780B483B000AF56
:1019DC0078600B467B8013467B707B78002B03D0A2
:1019EC007A887B681A6103E07B881A047B681A6129
:1019FC0000BF0C37BD4680BC704780B485B000AFCB
:101A0C0078600B467B807B68DB68FB607A88FB68C0
:101A1C0013401A04FB68D9437B880B401A437B683C
:101A2C001A6100BF1437BD4680BC704780B586B0C4
:101A3C0000AF78607B68002B01D101236CE27B68DE
:101A4C001B6803F00103002B00F08780924B5B684E
:101A5C0003F00C03042B0CD08F4B5B6803F00C03CE
:101A6C00082B12D18C4B5B6803F48033B3F5803FA9
:101A7C000BD1894B1B6803F40033002B6CD07B68B3
:101A8C005B68002B68D1012346E27B685B68B3F589
:101A9C00803F06D1804B1B687F4A43F48033136030
:101AAC002EE07B685B68002B0CD17B4B1B687A4A61
:101ABC0023F480331360784B1B68774A23F480231C
:101ACC0013601DE07B685B68B3F5A02F0CD1724BE3
:101ADC001B68714A43F4802313606F4B1B686E4A7A
:101AEC0043F4803313600BE06B4B1B686A4A23F49E
:101AFC0080331360684B1B68674A23F480231360A0
:101B0C007B685B68002B13D0FFF7B6FC386108E0EC
:101B1C00FFF7B2FC02463B69D31A642B01D90323AD
:101B2C00FAE15D4B1B6803F40033002BF0D014E09A
:101B3C00FFF7A2FC386108E0FFF79EFC02463B6908
:101B4C00D31A642B01D90323E6E1534B1B6803F42E
:101B5C000033002BF0D100E000BF7B681B6803F062
:101B6C000203002B63D04C4B5B6803F00C03002B7F
:101B7C000BD0494B5B6803F00C03082B1CD1464B74
:101B8C005B6803F48033002B16D1434B1B6803F0C6
:101B9C000203002B05D07B681B69012B01D00123AC
:101BAC00BAE13D4B1B6823F0F8027B685B69DB00F4
:101BBC00394913430B603AE07B681B69002B20D03A
:101BCC00364B01221A60FFF757FC386108E0FFF72B
:101BDC0053FC02463B69D31A022B01D903239BE128
:101BEC002D4B1B6803F00203002BF0D02A4B1B6813
:101BFC0023F0F8027B685B69DB00274913430B6019
:101C0C0015E0264B00221A60FFF736FC386108E01D
:101C1C00FFF732FC02463B69D31A022B01D903238E
:101C2C007AE11D4B1B6803F00203002BF0D17B689B
:101C3C001B6803F00803002B3AD07B689B69002BD0
:101C4C0019D0174B01221A60FFF716FC386108E017
:101C5C00FFF712FC02463B69D31A022B01D903236E
:101C6C005AE10D4B5B6A03F00203002BF0D001200C
:101C7C0000F09AFA1CE00A4B00221A60FFF7FCFBFA
:101C8C0038610FE0FFF7F8FB02463B69D31A022BD1
:101C9C0008D9032340E100BF00100240000042427B
:101CAC00800442429E4B5B6A03F00203002BE9D195
:101CBC007B681B6803F00403002B00F0A680002354
:101CCC00FB75974BDB6903F08053002B0DD1944BC4
:101CDC00DB69934A43F08053D361914BDB6903F08A
:101CEC008053BB60BB680123FB758E4B1B6803F4F0
:101CFC008073002B18D18B4B1B688A4A43F480737A
:101D0C001360FFF7B9FB386108E0FFF7B5FB02463B
:101D1C003B69D31A642B01D90323FDE0814B1B686B
:101D2C0003F48073002BF0D07B68DB68012B06D1A9
:101D3C007B4B1B6A7A4A43F0010313622DE07B68EC
:101D4C00DB68002B0CD1764B1B6A754A23F0010320
:101D5C001362734B1B6A724A23F0040313621CE078
:101D6C007B68DB68052B0CD16D4B1B6A6C4A43F00E
:101D7C00040313626A4B1B6A694A43F00103136242
:101D8C000BE0674B1B6A664A23F001031362644B3A
:101D9C001B6A634A23F0040313627B68DB68002B25
:101DAC0015D0FFF769FB38610AE0FFF765FB0246C7
:101DBC003B69D31A41F28832934201D90323ABE039
:101DCC00574B1B6A03F00203002BEED014E0FFF715
:101DDC0053FB38610AE0FFF74FFB02463B69D31A0D
:101DEC0041F28832934201D9032395E04C4B1B6A94
:101DFC0003F00203002BEED1FB7D012B05D1484BE8
:101E0C00DB69474A23F08053D3617B68DB69002B85
:101E1C0000F08180424B5B6803F00C03082B61D00F
:101E2C007B68DB69022B46D13F4B00221A60FFF71F
:101E3C0023FB386108E0FFF71FFB02463B69D31A0E
:101E4C00022B01D9032367E0354B1B6803F00073A9
:101E5C00002BF0D17B681B6AB3F5803F08D1304B67
:101E6C005B6823F400327B689B682D4913434B60FD
:101E7C002B4B5B6823F474127B68196A7B685B6A72
:101E8C000B43274913434B60274B01221A60FFF782
:101E9C00F3FA386108E0FFF7EFFA02463B69D31A10
:101EAC00022B01D9032337E01D4B1B6803F0007391
:101EBC00002BF0D02FE01C4B00221A60FFF7DCFA4D
:101ECC00386108E0FFF7D8FA02463B69D31A022BB7
:101EDC0001D9032320E0124B1B6803F00073002B85
:101EEC00F0D118E07B68DB69012B01D1012313E0F1
:101EFC000B4B5B68FB60FB6803F480327B681B6AEE
:101F0C009A4206D1FB6803F470127B685B6A9A42B2
:101F1C0001D0012300E0002318461837BD4680BDD0
:101F2C0000100240007000406000424280B584B056
:101F3C0000AF786039607B68002B01D10123D0E0C1
:101F4C006A4B1B6803F007033A689A4210D9674B37
:101F5C001B6823F0070265493B6813430B60634B16
:101F6C001B6803F007033A689A4201D00123B8E0DA
:101F7C007B681B6803F00203002B20D07B681B6876
:101F8C0003F00403002B05D0594B5B68584A43F40B
:101F9C00E06353607B681B6803F00803002B05D0DB
:101FAC00534B5B68524A43F460535360504B5B682D
:101FBC0023F0F0027B689B684D4913434B607B68B0
:101FCC001B6803F00103002B40D07B685B68012B7E
:101FDC0007D1474B1B6803F40033002B15D10123A9
:101FEC007FE07B685B68022B07D1414B1B6803F0D9
:101FFC000073002B09D1012373E03D4B1B6803F0E8
:10200C000203002B01D101236BE0394B5B6823F0F9
:10201C0003027B685B68364913434B60FFF72CFA6D
:10202C00F8600AE0FFF728FA0246FB68D31A41F27F
:10203C008832934201D9032353E02D4B5B6803F0A4
:10204C000C027B685B689B009A42EBD1274B1B68A8
:10205C0003F007033A689A4210D2244B1B6823F012
:10206C00070222493B6813430B60204B1B6803F0AB
:10207C0007033A689A4201D0012332E07B681B685F
:10208C0003F00403002B08D0194B5B6823F4E062C7
:10209C007B68DB68164913434B607B681B6803F055
:1020AC000803002B09D0124B5B6823F460527B6849
:1020BC001B69DB000E4913434B6000F021F802460C
:1020CC000B4B5B681B0903F00F030A49CB5C22FA2C
:1020DC0003F3094A1360094B1B681846FFF78AF98A
:1020EC00002318461037BD4680BD00BF00200240BB
:1020FC0000100240182A0008080000200C000020E4
:10210C0080B487B000AF0023FB600023BB600023CA
:10211C007B6100237B6000233B611E4B5B68FB6093
:10212C00FB6803F00C03042B02D0082B03D027E030
:10213C00194B3B6127E0FB689B0C03F00F03174A1C
:10214C00D35C7B60FB6803F48033002B10D0114B05
:10215C005B685B0C03F00103114AD35CBB607B68CA
:10216C000D4A02FB03F2BB68B2FBF3F37B6104E0A4
:10217C007B680C4A02FB03F37B617B693B6102E0E9
:10218C00054B3B6100BF3B6918461C37BD4680BC04
:10219C00704700BF0010024000127A00282A000885
:1021AC00382A000800093D0080B485B000AF786083
:1021BC000A4B1B680A4AA2FB03235B0A7A6802FBE0
:1021CC0003F3FB6000BFFB685A1EFA60002BF9D1C9
:1021DC0000BF00BF1437BD4680BC7047080000200C
:1021EC00D34D621080B582B000AF78607B68002B55
:1021FC0001D1012341E07B6893F83D30DBB2002B29
:10220C0006D17B68002283F83C207868FEF788FEB4
:10221C007B68022283F83D207B681A687B68043354
:10222C001946104600F056FA7B68012283F84620C6
:10223C007B68012283F83E207B68012283F83F20D3
:10224C007B68012283F840207B68012283F84120BF
:10225C007B68012283F842207B68012283F84320AB
:10226C007B68012283F844207B68012283F8452097
:10227C007B68012283F83D20002318460837BD46B1
:10228C0080BD000080B485B000AF78607B6893F8A7
:10229C003D30DBB2012B01D0012335E07B680222FB
:1022AC0083F83D207B681B68DA687B681B6842F00A
:1022BC000102DA607B681B68164A934209D07B687E
:1022CC001B68B3F1804F04D07B681B68124A9342A1
:1022DC0011D17B681B689B6803F00703FB60FB68EC
:1022EC00062B10D07B681B681A687B681B6842F051
:1022FC0001021A6007E07B681B681A687B681B6820
:10230C0042F001021A60002318461437BD4680BC07
:10231C00704700BF002C01400004004080B584B021
:10232C0000AF78607B681B68DB68FB607B681B68B0
:10233C001B69BB60BB6803F00203002B20D0FB6859
:10234C0003F00203002B1BD07B681B686FF00202AA
:10235C001A617B6801221A777B681B689B6903F002
:10236C000303002B03D0786800F098F905E0786837
:10237C0000F08BF9786800F09AF97B6800221A77E4
:10238C00BB6803F00403002B20D0FB6803F00403AC
:10239C00002B1BD07B681B686FF004021A617B68F2
:1023AC0002221A777B681B689B6903F44073002B2D
:1023BC0003D0786800F072F905E0786800F065F9F0
:1023CC00786800F074F97B6800221A77BB6803F018
:1023DC000803002B20D0FB6803F00803002B1BD054
:1023EC007B681B686FF008021A617B6804221A77FD
:1023FC007B681B68DB6903F00303002B03D0786850
:10240C0000F04CF905E0786800F03FF9786800F0CE
:10241C004EF97B6800221A77BB6803F01003002B7F
:10242C0020D0FB6803F01003002B1BD07B681B68CB
:10243C006FF010021A617B6808221A777B681B68A0
:10244C00DB6903F44073002B03D0786800F026F9A5
:10245C0005E0786800F019F9786800F028F97B68D5
:10246C0000221A77BB6803F00103002B0CD0FB6829
:10247C0003F00103002B07D07B681B686FF001028F
:10248C001A617868FEF7A4FCBB6803F08003002B8C
:10249C000CD0FB6803F08003002B07D07B681B6813
:1024AC006FF080021A61786800F06FFABB6803F075
:1024BC004003002B0CD0FB6803F04003002B07D02B
:1024CC007B681B686FF040021A61786800F0F8F8BE
:1024DC00BB6803F02003002B0CD0FB6803F0200337
:1024EC00002B07D07B681B686FF020021A6178689C
:1024FC0000F042FA00BF1037BD4680BD80B584B0F5
:10250C0000AF786039600023FB737B6893F83C3034
:10251C00012B01D10223B4E07B68012283F83C201B
:10252C007B68022283F83D207B681B689B68BB603C
:10253C00BB6823F07703BB60BB6823F47F43BB60AD
:10254C007B681B68BA689A603B681B68B3F5005FD0
:10255C003ED0B3F5005F00F28780B3F5805F00F0EA
:10256C008680B3F5805F7FD8702B1AD0702B7BD808
:10257C00602B50D0602B77D8502B3CD0502B73D87D
:10258C00402B58D0402B6FD8302B64D0302B6BD8CD
:10259C00202B60D0202B67D8002B5CD0102B5AD06E
:1025AC0062E07B6818683B6899683B685A683B68CE
:1025BC00DB6800F06AF97B681B689B68BB60BB68D2
:1025CC0043F07703BB607B681B68BA689A604FE086
:1025DC007B6818683B6899683B685A683B68DB689D
:1025EC0000F053F97B681B689A687B681B6842F49F
:1025FC0080429A603CE07B6818683B6859683B688D
:10260C00DB681A4600F0CAF87B681B685021184634
:10261C0000F021F92CE07B6818683B6859683B682E
:10262C00DB681A4600F0E8F87B681B6860211846E6
:10263C0000F011F91CE07B6818683B6859683B682E
:10264C00DB681A4600F0AAF87B681B684021184624
:10265C0000F001F90CE07B681A683B681B681946AE
:10266C00104600F0F8F803E00123FB7300E000BF14
:10267C007B68012283F83D207B68002283F83C2094
:10268C00FB7B18461037BD4680BD80B483B000AFCD
:10269C00786000BF0C37BD4680BC704780B483B0F7
:1026AC0000AF786000BF0C37BD4680BC704780B46B
:1026BC0083B000AF786000BF0C37BD4680BC70475C
:1026CC0080B483B000AF786000BF0C37BD4680BCCF
:1026DC007047000080B485B000AF786039607B68CB
:1026EC001B68FB607B682B4A934207D07B68B3F175
:1026FC00804F03D07B68284A934208D1FB6823F0B3
:10270C007003FB603B685B68FA681343FB607B6893
:10271C00204A934207D07B68B3F1804F03D07B688B
:10272C001D4A934208D1FB6823F44073FB603B685D
:10273C00DB68FA681343FB60FB6823F080023B689C
:10274C005B691343FB607B68FA681A603B689A68A4
:10275C007B68DA623B681A687B689A627B680D4A10
:10276C00934203D13B681A697B681A637B68012228
:10277C005A617B681B6903F00103002B05D07B6851
:10278C001B6923F001027B681A6100BF1437BD4638
:10279C0080BC7047002C01400004004080B487B01E
:1027AC0000AFF860B9607A60FB681B6A7B61FB68FC
:1027BC001B6A23F00102FB681A62FB689B693B6190
:1027CC003B6923F0F0033B617B681B013A691343BF
:1027DC003B617B6923F00A037B617A69BB68134315
:1027EC007B61FB683A699A61FB687A691A6200BF7F
:1027FC001C37BD4680BC704780B487B000AFF86012
:10280C00B9607A60FB681B6A7B61FB681B6A23F00A
:10281C001002FB681A62FB689B693B613B6923F4FD
:10282C0070433B617B681B033A6913433B617B69D3
:10283C0023F0A0037B61BB681B017A6913437B61A6
:10284C00FB683A699A61FB687A691A6200BF1C37A7
:10285C00BD4680BC704780B485B000AF78603960ED
:10286C007B689B68FB60FB6823F07003FB603A6835
:10287C00FB68134343F00703FB607B68FA689A60BC
:10288C0000BF1437BD4680BC704780B487B000AF22
:10289C00F860B9607A603B60FB689B687B617B6920
:1028AC0023F47F437B613B681A027B681A43BB6845
:1028BC0013437A6913437B61FB687A699A6000BFA2
:1028CC001C37BD4680BC704780B485B000AF7860C3
:1028DC0039607B6893F83C30012B01D1022341E035
:1028EC007B68012283F83C207B68022283F83D2020
:1028FC007B681B685B68FB607B681B689B68BB60C4
:10290C00FB6823F07003FB603B681B68FA68134399
:10291C00FB607B681B68FA685A607B681B68144A0A
:10292C00934209D07B681B68B3F1804F04D07B685D
:10293C001B68104A93420CD1BB6823F08003BB6028
:10294C003B685B68BA681343BB607B681B68BA68FA
:10295C009A607B68012283F83D207B68002283F813
:10296C003C20002318461437BD4680BC704700BF7E
:10297C00002C01400004004080B483B000AF7860AC
:10298C0000BF0C37BD4680BC704780B483B000AF2D
:10299C00786000BF0C37BD4680BC704770B5002610
:1029AC000C4D0D4C641BA410A64209D100F022F86A
:1029BC0000260A4D0A4C641BA410A64205D170BD1A
:1029CC0055F8043B98470136EEE755F8043B984719
:1029DC000136F2E73C2A00083C2A00083C2A000891
:1029EC00402A000803460244934200D1704703F882
:1029FC00011BF9E7F8B500BFF8BC08BC9E46704750
:0C2A0C00F8B500BFF8BC08BC9E4670473F
:102A18000000000000000000010203040607080986
:102A280002030405060708090A0B0C0D0E0F101007
:042A38000102000097
:042A3C00310100085C
:042A40000D0100087C
:102A4400640000006400000000127A00100000001E
:042A5400010000007D
:040000050800138953
:00000001FF
